{
  "_format": "hh-sol-artifact-1",
  "contractName": "AoBridgeETH",
  "sourceName": "contracts/ethereum/bridge.sol",
  "abi": [
    {
      "inputs": [
        {
          "internalType": "address",
          "name": "_oracleAddress",
          "type": "address"
        },
        {
          "internalType": "address",
          "name": "_linkTokenAddr",
          "type": "address"
        },
        {
          "internalType": "address",
          "name": "_treasuryAddr",
          "type": "address"
        },
        {
          "internalType": "address",
          "name": "_cronjobAddr",
          "type": "address"
        },
        {
          "internalType": "string",
          "name": "_jobId",
          "type": "string"
        },
        {
          "internalType": "string",
          "name": "_baseEndpoint",
          "type": "string"
        },
        {
          "internalType": "uint256",
          "name": "_ofee",
          "type": "uint256"
        },
        {
          "internalType": "uint256",
          "name": "_bLockfee",
          "type": "uint256"
        },
        {
          "internalType": "uint256",
          "name": "_minBAmount",
          "type": "uint256"
        },
        {
          "internalType": "uint256",
          "name": "_unlockFlatFee",
          "type": "uint256"
        }
      ],
      "stateMutability": "nonpayable",
      "type": "constructor"
    },
    {
      "inputs": [
        {
          "internalType": "uint256",
          "name": "value",
          "type": "uint256"
        },
        {
          "internalType": "uint256",
          "name": "length",
          "type": "uint256"
        }
      ],
      "name": "StringsInsufficientHexLength",
      "type": "error"
    },
    {
      "anonymous": false,
      "inputs": [
        {
          "indexed": true,
          "internalType": "bytes32",
          "name": "id",
          "type": "bytes32"
        }
      ],
      "name": "ChainlinkCancelled",
      "type": "event"
    },
    {
      "anonymous": false,
      "inputs": [
        {
          "indexed": true,
          "internalType": "bytes32",
          "name": "id",
          "type": "bytes32"
        }
      ],
      "name": "ChainlinkFulfilled",
      "type": "event"
    },
    {
      "anonymous": false,
      "inputs": [
        {
          "indexed": true,
          "internalType": "bytes32",
          "name": "id",
          "type": "bytes32"
        }
      ],
      "name": "ChainlinkRequested",
      "type": "event"
    },
    {
      "anonymous": false,
      "inputs": [
        {
          "indexed": true,
          "internalType": "address",
          "name": "address_",
          "type": "address"
        },
        {
          "indexed": false,
          "internalType": "uint256",
          "name": "amount_",
          "type": "uint256"
        }
      ],
      "name": "Lock",
      "type": "event"
    },
    {
      "anonymous": false,
      "inputs": [
        {
          "indexed": true,
          "internalType": "address",
          "name": "from",
          "type": "address"
        },
        {
          "indexed": true,
          "internalType": "address",
          "name": "to",
          "type": "address"
        }
      ],
      "name": "OwnershipTransferRequested",
      "type": "event"
    },
    {
      "anonymous": false,
      "inputs": [
        {
          "indexed": true,
          "internalType": "address",
          "name": "from",
          "type": "address"
        },
        {
          "indexed": true,
          "internalType": "address",
          "name": "to",
          "type": "address"
        }
      ],
      "name": "OwnershipTransferred",
      "type": "event"
    },
    {
      "anonymous": false,
      "inputs": [
        {
          "indexed": true,
          "internalType": "bytes32",
          "name": "requestId_",
          "type": "bytes32"
        },
        {
          "indexed": false,
          "internalType": "uint256",
          "name": "result_",
          "type": "uint256"
        }
      ],
      "name": "Request",
      "type": "event"
    },
    {
      "anonymous": false,
      "inputs": [
        {
          "indexed": true,
          "internalType": "address",
          "name": "address_",
          "type": "address"
        },
        {
          "indexed": false,
          "internalType": "uint256",
          "name": "amount_",
          "type": "uint256"
        }
      ],
      "name": "Unlock",
      "type": "event"
    },
    {
      "inputs": [
        {
          "internalType": "string",
          "name": "",
          "type": "string"
        }
      ],
      "name": "MemIdToReq",
      "outputs": [
        {
          "internalType": "bytes32",
          "name": "",
          "type": "bytes32"
        }
      ],
      "stateMutability": "view",
      "type": "function"
    },
    {
      "inputs": [],
      "name": "acceptOwnership",
      "outputs": [],
      "stateMutability": "nonpayable",
      "type": "function"
    },
    {
      "inputs": [
        {
          "internalType": "address",
          "name": "",
          "type": "address"
        }
      ],
      "name": "balanceOf",
      "outputs": [
        {
          "internalType": "uint256",
          "name": "",
          "type": "uint256"
        }
      ],
      "stateMutability": "view",
      "type": "function"
    },
    {
      "inputs": [],
      "name": "cumulativeFees",
      "outputs": [
        {
          "internalType": "uint256",
          "name": "",
          "type": "uint256"
        }
      ],
      "stateMutability": "view",
      "type": "function"
    },
    {
      "inputs": [
        {
          "internalType": "bytes32",
          "name": "_requestId",
          "type": "bytes32"
        }
      ],
      "name": "executeUnlock",
      "outputs": [],
      "stateMutability": "nonpayable",
      "type": "function"
    },
    {
      "inputs": [
        {
          "internalType": "bytes32",
          "name": "_requestId",
          "type": "bytes32"
        },
        {
          "internalType": "uint256",
          "name": "_result",
          "type": "uint256"
        }
      ],
      "name": "fulfill",
      "outputs": [
        {
          "internalType": "uint256",
          "name": "",
          "type": "uint256"
        }
      ],
      "stateMutability": "nonpayable",
      "type": "function"
    },
    {
      "inputs": [],
      "name": "getBaseEndpoint",
      "outputs": [
        {
          "internalType": "string",
          "name": "",
          "type": "string"
        }
      ],
      "stateMutability": "view",
      "type": "function"
    },
    {
      "inputs": [],
      "name": "getBridgeLockFee",
      "outputs": [
        {
          "internalType": "uint256",
          "name": "",
          "type": "uint256"
        }
      ],
      "stateMutability": "view",
      "type": "function"
    },
    {
      "inputs": [],
      "name": "getFeeInHundredthsOfLink",
      "outputs": [
        {
          "internalType": "uint256",
          "name": "",
          "type": "uint256"
        }
      ],
      "stateMutability": "view",
      "type": "function"
    },
    {
      "inputs": [],
      "name": "getJobId",
      "outputs": [
        {
          "internalType": "string",
          "name": "",
          "type": "string"
        }
      ],
      "stateMutability": "view",
      "type": "function"
    },
    {
      "inputs": [],
      "name": "getMinBamount",
      "outputs": [
        {
          "internalType": "uint256",
          "name": "",
          "type": "uint256"
        }
      ],
      "stateMutability": "view",
      "type": "function"
    },
    {
      "inputs": [],
      "name": "getOracleAddress",
      "outputs": [
        {
          "internalType": "address",
          "name": "",
          "type": "address"
        }
      ],
      "stateMutability": "view",
      "type": "function"
    },
    {
      "inputs": [],
      "name": "getUnlockFlatFee",
      "outputs": [
        {
          "internalType": "uint256",
          "name": "",
          "type": "uint256"
        }
      ],
      "stateMutability": "view",
      "type": "function"
    },
    {
      "inputs": [
        {
          "internalType": "address",
          "name": "_to",
          "type": "address"
        }
      ],
      "name": "lock",
      "outputs": [],
      "stateMutability": "payable",
      "type": "function"
    },
    {
      "inputs": [
        {
          "internalType": "string",
          "name": "",
          "type": "string"
        }
      ],
      "name": "midIsRedeemed",
      "outputs": [
        {
          "internalType": "bool",
          "name": "",
          "type": "bool"
        }
      ],
      "stateMutability": "view",
      "type": "function"
    },
    {
      "inputs": [],
      "name": "owner",
      "outputs": [
        {
          "internalType": "address",
          "name": "",
          "type": "address"
        }
      ],
      "stateMutability": "view",
      "type": "function"
    },
    {
      "inputs": [
        {
          "internalType": "bytes32",
          "name": "",
          "type": "bytes32"
        }
      ],
      "name": "reqToCaller",
      "outputs": [
        {
          "internalType": "address",
          "name": "",
          "type": "address"
        }
      ],
      "stateMutability": "view",
      "type": "function"
    },
    {
      "inputs": [
        {
          "internalType": "bytes32",
          "name": "",
          "type": "bytes32"
        }
      ],
      "name": "reqToMemId",
      "outputs": [
        {
          "internalType": "string",
          "name": "",
          "type": "string"
        }
      ],
      "stateMutability": "view",
      "type": "function"
    },
    {
      "inputs": [
        {
          "internalType": "bytes32",
          "name": "",
          "type": "bytes32"
        }
      ],
      "name": "requests",
      "outputs": [
        {
          "internalType": "uint256",
          "name": "",
          "type": "uint256"
        }
      ],
      "stateMutability": "view",
      "type": "function"
    },
    {
      "inputs": [
        {
          "internalType": "string",
          "name": "_url",
          "type": "string"
        }
      ],
      "name": "setBaseEndpoint",
      "outputs": [],
      "stateMutability": "nonpayable",
      "type": "function"
    },
    {
      "inputs": [
        {
          "internalType": "uint256",
          "name": "_amount",
          "type": "uint256"
        }
      ],
      "name": "setBridgeLockFee",
      "outputs": [],
      "stateMutability": "nonpayable",
      "type": "function"
    },
    {
      "inputs": [
        {
          "internalType": "uint256",
          "name": "_feeInHundredthsOfLink",
          "type": "uint256"
        }
      ],
      "name": "setFeeInHundredthsOfLink",
      "outputs": [],
      "stateMutability": "nonpayable",
      "type": "function"
    },
    {
      "inputs": [
        {
          "internalType": "uint256",
          "name": "_feeInJuels",
          "type": "uint256"
        }
      ],
      "name": "setFeeInJuels",
      "outputs": [],
      "stateMutability": "nonpayable",
      "type": "function"
    },
    {
      "inputs": [
        {
          "internalType": "string",
          "name": "_jobId",
          "type": "string"
        }
      ],
      "name": "setJobId",
      "outputs": [],
      "stateMutability": "nonpayable",
      "type": "function"
    },
    {
      "inputs": [
        {
          "internalType": "uint256",
          "name": "_amount",
          "type": "uint256"
        }
      ],
      "name": "setMinBamount",
      "outputs": [],
      "stateMutability": "nonpayable",
      "type": "function"
    },
    {
      "inputs": [
        {
          "internalType": "address",
          "name": "_oracleAddress",
          "type": "address"
        }
      ],
      "name": "setOracleAddress",
      "outputs": [],
      "stateMutability": "nonpayable",
      "type": "function"
    },
    {
      "inputs": [
        {
          "internalType": "uint256",
          "name": "_amount",
          "type": "uint256"
        }
      ],
      "name": "setUnlockFlatFee",
      "outputs": [],
      "stateMutability": "nonpayable",
      "type": "function"
    },
    {
      "inputs": [],
      "name": "totalLocked",
      "outputs": [
        {
          "internalType": "uint256",
          "name": "",
          "type": "uint256"
        }
      ],
      "stateMutability": "view",
      "type": "function"
    },
    {
      "inputs": [
        {
          "internalType": "address",
          "name": "to",
          "type": "address"
        }
      ],
      "name": "transferOwnership",
      "outputs": [],
      "stateMutability": "nonpayable",
      "type": "function"
    },
    {
      "inputs": [
        {
          "internalType": "string",
          "name": "_memid",
          "type": "string"
        },
        {
          "internalType": "address",
          "name": "_caller",
          "type": "address"
        }
      ],
      "name": "validateUnlock",
      "outputs": [
        {
          "internalType": "bytes32",
          "name": "requestId",
          "type": "bytes32"
        }
      ],
      "stateMutability": "nonpayable",
      "type": "function"
    },
    {
      "inputs": [],
      "name": "withdrawFees",
      "outputs": [],
      "stateMutability": "nonpayable",
      "type": "function"
    },
    {
      "inputs": [],
      "name": "withdrawLink",
      "outputs": [],
      "stateMutability": "nonpayable",
      "type": "function"
    }
  ],
  "bytecode": "0x608060405260016004553480156200001657600080fd5b50604051620058663803806200586683398181016040528101906200003c919062000861565b338060008073ffffffffffffffffffffffffffffffffffffffff168273ffffffffffffffffffffffffffffffffffffffff1603620000b1576040517f08c379a0000000000000000000000000000000000000000000000000000000008152600401620000a890620009f6565b60405180910390fd5b81600660006101000a81548173ffffffffffffffffffffffffffffffffffffffff021916908373ffffffffffffffffffffffffffffffffffffffff160217905550600073ffffffffffffffffffffffffffffffffffffffff168173ffffffffffffffffffffffffffffffffffffffff1614620001395762000138816200035a60201b60201c565b5b505050600073ffffffffffffffffffffffffffffffffffffffff168a73ffffffffffffffffffffffffffffffffffffffff1614158015620001a75750600073ffffffffffffffffffffffffffffffffffffffff168973ffffffffffffffffffffffffffffffffffffffff1614155b8015620001e15750600073ffffffffffffffffffffffffffffffffffffffff168873ffffffffffffffffffffffffffffffffffffffff1614155b80156200021b5750600073ffffffffffffffffffffffffffffffffffffffff168773ffffffffffffffffffffffffffffffffffffffff1614155b6200025d576040517f08c379a0000000000000000000000000000000000000000000000000000000008152600401620002549062000a68565b60405180910390fd5b87600c60006101000a81548173ffffffffffffffffffffffffffffffffffffffff021916908373ffffffffffffffffffffffffffffffffffffffff16021790555086600d60006101000a81548173ffffffffffffffffffffffffffffffffffffffff021916908373ffffffffffffffffffffffffffffffffffffffff16021790555081600e81905550620002f7896200048b60201b60201c565b620003088a620004cf60201b60201c565b62000319866200051360201b60201c565b6200032a846200053860201b60201c565b82600a8190555080600f81905550846010908162000349919062000ccb565b505050505050505050505062001023565b3373ffffffffffffffffffffffffffffffffffffffff168173ffffffffffffffffffffffffffffffffffffffff1603620003cb576040517f08c379a0000000000000000000000000000000000000000000000000000000008152600401620003c29062000e02565b60405180910390fd5b80600760006101000a81548173ffffffffffffffffffffffffffffffffffffffff021916908373ffffffffffffffffffffffffffffffffffffffff1602179055508073ffffffffffffffffffffffffffffffffffffffff16600660009054906101000a900473ffffffffffffffffffffffffffffffffffffffff1673ffffffffffffffffffffffffffffffffffffffff167fed8889f560326eb138920d842192f0eb3dd22b4f139c87a2c57538e05bae127860405160405180910390a350565b80600260006101000a81548173ffffffffffffffffffffffffffffffffffffffff021916908373ffffffffffffffffffffffffffffffffffffffff16021790555050565b80600360006101000a81548173ffffffffffffffffffffffffffffffffffffffff021916908373ffffffffffffffffffffffffffffffffffffffff16021790555050565b620005236200057f60201b60201c565b806200052f9062000e60565b60088190555050565b620005486200057f60201b60201c565b6200057c6064670de0b6b3a76400008362000564919062000eff565b62000570919062000f79565b6200061460201b60201c565b50565b600660009054906101000a900473ffffffffffffffffffffffffffffffffffffffff1673ffffffffffffffffffffffffffffffffffffffff163373ffffffffffffffffffffffffffffffffffffffff161462000612576040517f08c379a0000000000000000000000000000000000000000000000000000000008152600401620006099062001001565b60405180910390fd5b565b620006246200057f60201b60201c565b8060098190555050565b6000604051905090565b600080fd5b600080fd5b600073ffffffffffffffffffffffffffffffffffffffff82169050919050565b60006200066f8262000642565b9050919050565b620006818162000662565b81146200068d57600080fd5b50565b600081519050620006a18162000676565b92915050565b600080fd5b600080fd5b6000601f19601f8301169050919050565b7f4e487b7100000000000000000000000000000000000000000000000000000000600052604160045260246000fd5b620006fc82620006b1565b810181811067ffffffffffffffff821117156200071e576200071d620006c2565b5b80604052505050565b6000620007336200062e565b9050620007418282620006f1565b919050565b600067ffffffffffffffff821115620007645762000763620006c2565b5b6200076f82620006b1565b9050602081019050919050565b60005b838110156200079c5780820151818401526020810190506200077f565b60008484015250505050565b6000620007bf620007b98462000746565b62000727565b905082815260208101848484011115620007de57620007dd620006ac565b5b620007eb8482856200077c565b509392505050565b600082601f8301126200080b576200080a620006a7565b5b81516200081d848260208601620007a8565b91505092915050565b6000819050919050565b6200083b8162000826565b81146200084757600080fd5b50565b6000815190506200085b8162000830565b92915050565b6000806000806000806000806000806101408b8d03121562000888576200088762000638565b5b6000620008988d828e0162000690565b9a50506020620008ab8d828e0162000690565b9950506040620008be8d828e0162000690565b9850506060620008d18d828e0162000690565b97505060808b015167ffffffffffffffff811115620008f557620008f46200063d565b5b620009038d828e01620007f3565b96505060a08b015167ffffffffffffffff8111156200092757620009266200063d565b5b620009358d828e01620007f3565b95505060c0620009488d828e016200084a565b94505060e06200095b8d828e016200084a565b9350506101006200096f8d828e016200084a565b925050610120620009838d828e016200084a565b9150509295989b9194979a5092959850565b600082825260208201905092915050565b7f43616e6e6f7420736574206f776e657220746f207a65726f0000000000000000600082015250565b6000620009de60188362000995565b9150620009eb82620009a6565b602082019050919050565b6000602082019050818103600083015262000a1181620009cf565b9050919050565b7f496e76616c696420616464726573730000000000000000000000000000000000600082015250565b600062000a50600f8362000995565b915062000a5d8262000a18565b602082019050919050565b6000602082019050818103600083015262000a838162000a41565b9050919050565b600081519050919050565b7f4e487b7100000000000000000000000000000000000000000000000000000000600052602260045260246000fd5b6000600282049050600182168062000add57607f821691505b60208210810362000af35762000af262000a95565b5b50919050565b60008190508160005260206000209050919050565b60006020601f8301049050919050565b600082821b905092915050565b60006008830262000b5d7fffffffffffffffffffffffffffffffffffffffffffffffffffffffffffffffff8262000b1e565b62000b69868362000b1e565b95508019841693508086168417925050509392505050565b6000819050919050565b600062000bac62000ba662000ba08462000826565b62000b81565b62000826565b9050919050565b6000819050919050565b62000bc88362000b8b565b62000be062000bd78262000bb3565b84845462000b2b565b825550505050565b600090565b62000bf762000be8565b62000c0481848462000bbd565b505050565b5b8181101562000c2c5762000c2060008262000bed565b60018101905062000c0a565b5050565b601f82111562000c7b5762000c458162000af9565b62000c508462000b0e565b8101602085101562000c60578190505b62000c7862000c6f8562000b0e565b83018262000c09565b50505b505050565b600082821c905092915050565b600062000ca06000198460080262000c80565b1980831691505092915050565b600062000cbb838362000c8d565b9150826002028217905092915050565b62000cd68262000a8a565b67ffffffffffffffff81111562000cf25762000cf1620006c2565b5b62000cfe825462000ac4565b62000d0b82828562000c30565b600060209050601f83116001811462000d43576000841562000d2e578287015190505b62000d3a858262000cad565b86555062000daa565b601f19841662000d538662000af9565b60005b8281101562000d7d5784890151825560018201915060208501945060208101905062000d56565b8683101562000d9d578489015162000d99601f89168262000c8d565b8355505b6001600288020188555050505b505050505050565b7f43616e6e6f74207472616e7366657220746f2073656c66000000000000000000600082015250565b600062000dea60178362000995565b915062000df78262000db2565b602082019050919050565b6000602082019050818103600083015262000e1d8162000ddb565b9050919050565b600081519050919050565b6000819050602082019050919050565b6000819050919050565b600062000e57825162000e3f565b80915050919050565b600062000e6d8262000e24565b8262000e798462000e2f565b905062000e868162000e49565b9250602082101562000ec95762000ec47fffffffffffffffffffffffffffffffffffffffffffffffffffffffffffffffff8360200360080262000b1e565b831692505b5050919050565b7f4e487b7100000000000000000000000000000000000000000000000000000000600052601160045260246000fd5b600062000f0c8262000826565b915062000f198362000826565b925082820262000f298162000826565b9150828204841483151762000f435762000f4262000ed0565b5b5092915050565b7f4e487b7100000000000000000000000000000000000000000000000000000000600052601260045260246000fd5b600062000f868262000826565b915062000f938362000826565b92508262000fa65762000fa562000f4a565b5b828204905092915050565b7f4f6e6c792063616c6c61626c65206279206f776e657200000000000000000000600082015250565b600062000fe960168362000995565b915062000ff68262000fb1565b602082019050919050565b600060208201905081810360008301526200101c8162000fda565b9050919050565b61483380620010336000396000f3fe6080604052600436106101e35760003560e01c80637c1535e411610102578063b18b78dd11610095578063f2fde38b11610064578063f2fde38b146106e2578063f34473a51461070b578063f435f5a714610734578063f6b7c8e714610750576101e3565b8063b18b78dd14610626578063b8ce249c14610651578063d3b2cee71461067c578063e3da201d146106b9576101e3565b80638dc654a2116100d15780638dc654a21461057c5780639d86698514610593578063ac53de59146105d0578063b02f7fe0146105fb576101e3565b80637c1535e4146104ac5780637d0e7cb9146104e9578063829c6703146105265780638da5cb5b14610551576101e3565b8063568914121161017a5780636822f8cb116101495780636822f8cb146103f057806370a082311461042d5780637875c4c31461046a57806379ba509714610495576101e3565b8063568914121461033457806358df14571461035f5780635b9ae89d1461039c57806366901f0f146103c5576101e3565b80634357855e116101b65780634357855e1461028c578063476343ee146102c95780634c69c00f146102e05780635623768214610309576101e3565b8063129fc1c0146101e85780631b4493aa146102115780632fee52f51461023a5780634133743714610263575b600080fd5b3480156101f457600080fd5b5061020f600480360381019061020a9190613062565b610779565b005b34801561021d57600080fd5b50610238600480360381019061023391906130e1565b610794565b005b34801561024657600080fd5b50610261600480360381019061025c9190613144565b610c59565b005b34801561026f57600080fd5b5061028a60048036038101906102859190613144565b610c6b565b005b34801561029857600080fd5b506102b360048036038101906102ae9190613171565b610c7d565b6040516102c091906131c0565b60405180910390f35b3480156102d557600080fd5b506102de610f2e565b005b3480156102ec57600080fd5b5061030760048036038101906103029190613239565b61116e565b005b34801561031557600080fd5b5061031e611232565b60405161032b91906131c0565b60405180910390f35b34801561034057600080fd5b5061034961125b565b60405161035691906131c0565b60405180910390f35b34801561036b57600080fd5b50610386600480360381019061038191906132c6565b611261565b6040516103939190613335565b60405180910390f35b3480156103a857600080fd5b506103c360048036038101906103be9190613144565b611727565b005b3480156103d157600080fd5b506103da611739565b6040516103e791906131c0565b60405180910390f35b3480156103fc57600080fd5b5061041760048036038101906104129190613062565b611743565b6040516104249190613335565b60405180910390f35b34801561043957600080fd5b50610454600480360381019061044f9190613239565b611771565b60405161046191906131c0565b60405180910390f35b34801561047657600080fd5b5061047f611789565b60405161048c91906131c0565b60405180910390f35b3480156104a157600080fd5b506104aa611793565b005b3480156104b857600080fd5b506104d360048036038101906104ce9190613062565b61192a565b6040516104e0919061336b565b60405180910390f35b3480156104f557600080fd5b50610510600480360381019061050b91906130e1565b611960565b60405161051d9190613405565b60405180910390f35b34801561053257600080fd5b5061053b611a00565b60405161054891906131c0565b60405180910390f35b34801561055d57600080fd5b50610566611a06565b6040516105739190613436565b60405180910390f35b34801561058857600080fd5b50610591611a30565b005b34801561059f57600080fd5b506105ba60048036038101906105b591906130e1565b611b7d565b6040516105c791906131c0565b60405180910390f35b3480156105dc57600080fd5b506105e5611b95565b6040516105f291906131c0565b60405180910390f35b34801561060757600080fd5b50610610611b9f565b60405161061d9190613405565b60405180910390f35b34801561063257600080fd5b5061063b611bd0565b6040516106489190613436565b60405180910390f35b34801561065d57600080fd5b50610666611c02565b6040516106739190613405565b60405180910390f35b34801561068857600080fd5b506106a3600480360381019061069e91906130e1565b611c94565b6040516106b09190613436565b60405180910390f35b3480156106c557600080fd5b506106e060048036038101906106db9190613144565b611cc7565b005b3480156106ee57600080fd5b5061070960048036038101906107049190613239565b611cd9565b005b34801561071757600080fd5b50610732600480360381019061072d9190613144565b611ced565b005b61074e60048036038101906107499190613239565b611d20565b005b34801561075c57600080fd5b5061077760048036038101906107729190613062565b611fc2565b005b610781611fdd565b8061078b9061348e565b60088190555050565b600060146000838152602001908152602001600020549050600f5481116107f0576040517f08c379a00000000000000000000000000000000000000000000000000000000081526004016107e790613541565b60405180910390fd5b600060156000848152602001908152602001600020805461081090613590565b80601f016020809104026020016040519081016040528092919081815260200182805461083c90613590565b80156108895780601f1061085e57610100808354040283529160200191610889565b820191906000526020600020905b81548152906001019060200180831161086c57829003601f168201915b505050505090506000600f54836108a091906135f0565b9050600081846108b091906135f0565b90503373ffffffffffffffffffffffffffffffffffffffff166018600087815260200190815260200160002060009054906101000a900473ffffffffffffffffffffffffffffffffffffffff1673ffffffffffffffffffffffffffffffffffffffff1614610953576040517f08c379a000000000000000000000000000000000000000000000000000000000815260040161094a90613670565b60405180910390fd5b83601360003373ffffffffffffffffffffffffffffffffffffffff1673ffffffffffffffffffffffffffffffffffffffff16815260200190815260200160002054101580156109e157506000601360003373ffffffffffffffffffffffffffffffffffffffff1673ffffffffffffffffffffffffffffffffffffffff16815260200190815260200160002054115b610a20576040517f08c379a0000000000000000000000000000000000000000000000000000000008152600401610a17906136dc565b60405180910390fd5b6001601784604051610a329190613738565b908152602001604051809103902060006101000a81548160ff02191690831515021790555083601360003373ffffffffffffffffffffffffffffffffffffffff1673ffffffffffffffffffffffffffffffffffffffff1681526020019081526020016000206000828254610aa691906135f0565b925050819055508060136000600c60009054906101000a900473ffffffffffffffffffffffffffffffffffffffff1673ffffffffffffffffffffffffffffffffffffffff1673ffffffffffffffffffffffffffffffffffffffff1681526020019081526020016000206000828254610b1e919061374f565b925050819055508060116000828254610b37919061374f565b925050819055508360126000828254610b5091906135f0565b9250508190555060003373ffffffffffffffffffffffffffffffffffffffff1683604051610b7d906137b4565b60006040518083038185875af1925050503d8060008114610bba576040519150601f19603f3d011682016040523d82523d6000602084013e610bbf565b606091505b5050905080610c03576040517f08c379a0000000000000000000000000000000000000000000000000000000008152600401610bfa90613815565b60405180910390fd5b3373ffffffffffffffffffffffffffffffffffffffff167f6381d9813cabeb57471b5a7e05078e64845ccdb563146a6911d536f24ce960f184604051610c4991906131c0565b60405180910390a2505050505050565b610c61611fdd565b80600f8190555050565b610c73611fdd565b80600e8190555050565b6000826005600082815260200190815260200160002060009054906101000a900473ffffffffffffffffffffffffffffffffffffffff1673ffffffffffffffffffffffffffffffffffffffff163373ffffffffffffffffffffffffffffffffffffffff1614610d21576040517f08c379a0000000000000000000000000000000000000000000000000000000008152600401610d18906138a7565b60405180910390fd5b6005600082815260200190815260200160002060006101000a81549073ffffffffffffffffffffffffffffffffffffffff0219169055807f7cc135e0cebb02c3480ae5d74d377283180a2601f8f644edf7987b009316c63a60405160405180910390a2606060008411610dc9576040517f08c379a0000000000000000000000000000000000000000000000000000000008152600401610dc090613913565b60405180910390fd5b601560008681526020019081526020016000208054610de790613590565b80601f0160208091040260200160405190810160405280929190818152602001828054610e1390613590565b8015610e605780601f10610e3557610100808354040283529160200191610e60565b820191906000526020600020905b815481529060010190602001808311610e4357829003601f168201915b50505050509050601781604051610e779190613738565b908152602001604051809103902060009054906101000a900460ff1615610ed3576040517f08c379a0000000000000000000000000000000000000000000000000000000008152600401610eca9061397f565b60405180910390fd5b836014600087815260200190815260200160002081905550847f35c22633134044d4e0ce8ee2fba34cd7f2a9922629b61e6e882e27333488a42585604051610f1b91906131c0565b60405180910390a2839250505092915050565b600060136000600c60009054906101000a900473ffffffffffffffffffffffffffffffffffffffff1673ffffffffffffffffffffffffffffffffffffffff1673ffffffffffffffffffffffffffffffffffffffff16815260200190815260200160002054905060008111610fa557610fa461399f565b5b600c60009054906101000a900473ffffffffffffffffffffffffffffffffffffffff1673ffffffffffffffffffffffffffffffffffffffff163373ffffffffffffffffffffffffffffffffffffffff1614611035576040517f08c379a000000000000000000000000000000000000000000000000000000000815260040161102c90613670565b60405180910390fd5b6000600c60009054906101000a900473ffffffffffffffffffffffffffffffffffffffff1673ffffffffffffffffffffffffffffffffffffffff168260405161107d906137b4565b60006040518083038185875af1925050503d80600081146110ba576040519150601f19603f3d011682016040523d82523d6000602084013e6110bf565b606091505b5050905080611103576040517f08c379a00000000000000000000000000000000000000000000000000000000081526004016110fa90613815565b60405180910390fd5b600060136000600c60009054906101000a900473ffffffffffffffffffffffffffffffffffffffff1673ffffffffffffffffffffffffffffffffffffffff1673ffffffffffffffffffffffffffffffffffffffff168152602001908152602001600020819055505050565b611176611fdd565b600073ffffffffffffffffffffffffffffffffffffffff168173ffffffffffffffffffffffffffffffffffffffff16036111e5576040517f08c379a00000000000000000000000000000000000000000000000000000000081526004016111dc90613a1a565b60405180910390fd5b80600b60006101000a81548173ffffffffffffffffffffffffffffffffffffffff021916908373ffffffffffffffffffffffffffffffffffffffff16021790555061122f8161206f565b50565b6000670de0b6b3a7640000606460095461124c9190613a3a565b6112569190613aab565b905090565b60125481565b6000600d60009054906101000a900473ffffffffffffffffffffffffffffffffffffffff1673ffffffffffffffffffffffffffffffffffffffff163373ffffffffffffffffffffffffffffffffffffffff16146112c1576112c061399f565b5b601784846040516112d3929190613b01565b908152602001604051809103902060009054906101000a900460ff16156112fd576112fc61399f565b5b6000611312600854634357855e60e01b6120b3565b905060006010868660405160200161132c93929190613bb2565b604051602081830303815290604052905060006113608573ffffffffffffffffffffffffffffffffffffffff1660146120e3565b6040516020016113709190613bfe565b604051602081830303815290604052905060008282604051602001611396929190613c24565b60405160208183030381529060405290506114266040518060400160405280600681526020017f6d6574686f6400000000000000000000000000000000000000000000000000008152506040518060400160405280600381526020017f4745540000000000000000000000000000000000000000000000000000000000815250866123299092919063ffffffff16565b6114706040518060400160405280600381526020017f75726c000000000000000000000000000000000000000000000000000000000081525082866123299092919063ffffffff16565b6114ef6040518060400160405280600481526020017f70617468000000000000000000000000000000000000000000000000000000008152506040518060400160405280600681526020017f616d6f756e740000000000000000000000000000000000000000000000000000815250866123299092919063ffffffff16565b6115516040518060400160405280600781526020017f68656164657273000000000000000000000000000000000000000000000000008152506040518060600160405280603f81526020016147bf603f9139866123299092919063ffffffff16565b6115aa6040518060400160405280600481526020017f626f64790000000000000000000000000000000000000000000000000000000081525060405180602001604052806000815250866123299092919063ffffffff16565b6116296040518060400160405280600781526020017f636f6e74616374000000000000000000000000000000000000000000000000008152506040518060400160405280601781526020017f68747470733a2f2f742e6d652f616e616c6f735f78797a000000000000000000815250866123299092919063ffffffff16565b6116746040518060400160405280600a81526020017f6d756c7469706c6965720000000000000000000000000000000000000000000081525060018661235c9092919063ffffffff16565b6116808460095461238f565b9450856018600087815260200190815260200160002060006101000a81548173ffffffffffffffffffffffffffffffffffffffff021916908373ffffffffffffffffffffffffffffffffffffffff16021790555087876015600088815260200190815260200160002091826116f6929190613ddd565b50846016898960405161170a929190613b01565b908152602001604051809103902081905550505050509392505050565b61172f611fdd565b80600a8190555050565b6000600f54905090565b6016818051602081018201805184825260208301602085012081835280955050505050506000915090505481565b60136020528060005260406000206000915090505481565b6000600a54905090565b600760009054906101000a900473ffffffffffffffffffffffffffffffffffffffff1673ffffffffffffffffffffffffffffffffffffffff163373ffffffffffffffffffffffffffffffffffffffff1614611823576040517f08c379a000000000000000000000000000000000000000000000000000000000815260040161181a90613ef9565b60405180910390fd5b6000600660009054906101000a900473ffffffffffffffffffffffffffffffffffffffff16905033600660006101000a81548173ffffffffffffffffffffffffffffffffffffffff021916908373ffffffffffffffffffffffffffffffffffffffff1602179055506000600760006101000a81548173ffffffffffffffffffffffffffffffffffffffff021916908373ffffffffffffffffffffffffffffffffffffffff1602179055503373ffffffffffffffffffffffffffffffffffffffff168173ffffffffffffffffffffffffffffffffffffffff167f8be0079c531659141344cd1fd0a4f28419497f9722a3daafe3b4186f6b6457e060405160405180910390a350565b6017818051602081018201805184825260208301602085012081835280955050505050506000915054906101000a900460ff1681565b6015602052806000526040600020600091509050805461197f90613590565b80601f01602080910402602001604051908101604052809291908181526020018280546119ab90613590565b80156119f85780601f106119cd576101008083540402835291602001916119f8565b820191906000526020600020905b8154815290600101906020018083116119db57829003601f168201915b505050505081565b60115481565b6000600660009054906101000a900473ffffffffffffffffffffffffffffffffffffffff16905090565b611a38611fdd565b6000611a426123c6565b90508073ffffffffffffffffffffffffffffffffffffffff1663a9059cbb338373ffffffffffffffffffffffffffffffffffffffff166370a08231306040518263ffffffff1660e01b8152600401611a9a9190613436565b602060405180830381865afa158015611ab7573d6000803e3d6000fd5b505050506040513d601f19601f82011682018060405250810190611adb9190613f2e565b6040518363ffffffff1660e01b8152600401611af8929190613f5b565b6020604051808303816000875af1158015611b17573d6000803e3d6000fd5b505050506040513d601f19601f82011682018060405250810190611b3b9190613fb0565b611b7a576040517f08c379a0000000000000000000000000000000000000000000000000000000008152600401611b7190614029565b60405180910390fd5b50565b60146020528060005260406000206000915090505481565b6000600e54905090565b6060611ba9611fdd565b600854604051602001611bbc919061406a565b604051602081830303815290604052905090565b6000611bda611fdd565b600b60009054906101000a900473ffffffffffffffffffffffffffffffffffffffff16905090565b606060108054611c1190613590565b80601f0160208091040260200160405190810160405280929190818152602001828054611c3d90613590565b8015611c8a5780601f10611c5f57610100808354040283529160200191611c8a565b820191906000526020600020905b815481529060010190602001808311611c6d57829003601f168201915b5050505050905090565b60186020528060005260406000206000915054906101000a900473ffffffffffffffffffffffffffffffffffffffff1681565b611ccf611fdd565b8060098190555050565b611ce1611fdd565b611cea816123f0565b50565b611cf5611fdd565b611d1d6064670de0b6b3a764000083611d0e9190613a3a565b611d189190613aab565b611cc7565b50565b600e54341015611d65576040517f08c379a0000000000000000000000000000000000000000000000000000000008152600401611d5c906140d1565b60405180910390fd5b60008073ffffffffffffffffffffffffffffffffffffffff168273ffffffffffffffffffffffffffffffffffffffff1614611da05781611da2565b335b90506000611daf3461251e565b905060008134611dbf91906135f0565b905060008473ffffffffffffffffffffffffffffffffffffffff1634604051611de7906137b4565b60006040518083038185875af1925050503d8060008114611e24576040519150601f19603f3d011682016040523d82523d6000602084013e611e29565b606091505b5050905080611e6d576040517f08c379a0000000000000000000000000000000000000000000000000000000008152600401611e6490613815565b60405180910390fd5b82601360008673ffffffffffffffffffffffffffffffffffffffff1673ffffffffffffffffffffffffffffffffffffffff1681526020019081526020016000206000828254611ebc919061374f565b925050819055508160136000600c60009054906101000a900473ffffffffffffffffffffffffffffffffffffffff1673ffffffffffffffffffffffffffffffffffffffff1673ffffffffffffffffffffffffffffffffffffffff1681526020019081526020016000206000828254611f34919061374f565b925050819055508260126000828254611f4d919061374f565b925050819055508160116000828254611f66919061374f565b925050819055508373ffffffffffffffffffffffffffffffffffffffff167f625fed9875dada8643f2418b838ae0bc78d9a148a18eee4ee1979ff0f3f5d42784604051611fb391906131c0565b60405180910390a25050505050565b611fca611fdd565b8060109081611fd991906140f1565b5050565b600660009054906101000a900473ffffffffffffffffffffffffffffffffffffffff1673ffffffffffffffffffffffffffffffffffffffff163373ffffffffffffffffffffffffffffffffffffffff161461206d576040517f08c379a00000000000000000000000000000000000000000000000000000000081526004016120649061420f565b60405180910390fd5b565b80600360006101000a81548173ffffffffffffffffffffffffffffffffffffffff021916908373ffffffffffffffffffffffffffffffffffffffff16021790555050565b6120bb612e81565b6120c3612e81565b6120da84308584612552909392919063ffffffff16565b91505092915050565b60606000839050600060028460026120fb9190613a3a565b612105919061374f565b67ffffffffffffffff81111561211e5761211d612f37565b5b6040519080825280601f01601f1916602001820160405280156121505781602001600182028036833780820191505090505b5090507f3000000000000000000000000000000000000000000000000000000000000000816000815181106121885761218761422f565b5b60200101907effffffffffffffffffffffffffffffffffffffffffffffffffffffffffffff1916908160001a9053507f7800000000000000000000000000000000000000000000000000000000000000816001815181106121ec576121eb61422f565b5b60200101907effffffffffffffffffffffffffffffffffffffffffffffffffffffffffffff1916908160001a9053506000600185600261222c9190613a3a565b612236919061374f565b90505b60018111156122d6577f3031323334353637383961626364656600000000000000000000000000000000600f8416601081106122785761227761422f565b5b1a60f81b82828151811061228f5761228e61422f565b5b60200101907effffffffffffffffffffffffffffffffffffffffffffffffffffffffffffff1916908160001a905350600483901c9250806122cf9061425e565b9050612239565b506000821461231e5784846040517fe22e27eb000000000000000000000000000000000000000000000000000000008152600401612315929190614287565b60405180910390fd5b809250505092915050565b61234082846080015161260290919063ffffffff16565b61235781846080015161260290919063ffffffff16565b505050565b61237382846080015161260290919063ffffffff16565b61238a81846080015161262790919063ffffffff16565b505050565b60006123be600360009054906101000a900473ffffffffffffffffffffffffffffffffffffffff1684846126d4565b905092915050565b6000600260009054906101000a900473ffffffffffffffffffffffffffffffffffffffff16905090565b3373ffffffffffffffffffffffffffffffffffffffff168173ffffffffffffffffffffffffffffffffffffffff160361245e576040517f08c379a0000000000000000000000000000000000000000000000000000000008152600401612455906142fc565b60405180910390fd5b80600760006101000a81548173ffffffffffffffffffffffffffffffffffffffff021916908373ffffffffffffffffffffffffffffffffffffffff1602179055508073ffffffffffffffffffffffffffffffffffffffff16600660009054906101000a900473ffffffffffffffffffffffffffffffffffffffff1673ffffffffffffffffffffffffffffffffffffffff167fed8889f560326eb138920d842192f0eb3dd22b4f139c87a2c57538e05bae127860405160405180910390a350565b600080612710600a54846125329190613a3a565b61253c9190613aab565b9050808361254a91906135f0565b915050919050565b61255a612e81565b61256a856080015161010061279e565b508385600001818152505082856020019073ffffffffffffffffffffffffffffffffffffffff16908173ffffffffffffffffffffffffffffffffffffffff16815250508185604001907bffffffffffffffffffffffffffffffffffffffffffffffffffffffff191690817bffffffffffffffffffffffffffffffffffffffffffffffffffffffff191681525050849050949350505050565b61260f8260038351612808565b612622818361298d90919063ffffffff16565b505050565b7fffffffffffffffffffffffffffffffffffffffffffffffff000000000000000081121561265e5761265982826129af565b6126d0565b67ffffffffffffffff81131561267d576126788282612a26565b6126cf565b600081126126965761269182600083612808565b6126ce565b6126cd826001837fffffffffffffffffffffffffffffffffffffffffffffffffffffffffffffffff6126c89190614326565b612808565b5b5b5b5050565b60008060045490506001816126e9919061374f565b6004819055506000633c6d41b960e01b600080876000015188604001518660028b608001516000015160405160240161272897969594939291906143ee565b604051602081830303815290604052907bffffffffffffffffffffffffffffffffffffffffffffffffffffffff19166020820180517bffffffffffffffffffffffffffffffffffffffffffffffffffffffff8381831617835250505050905061279386838684612a72565b925050509392505050565b6127a6612eee565b60006020836127b59190614464565b146127e1576020826127c79190614464565b60206127d391906135f0565b826127de919061374f565b91505b81836020018181525050604051808452600081528281016020016040525082905092915050565b60178167ffffffffffffffff161161283f576128398160058460ff16901b60ff161784612c0790919063ffffffff16565b50612988565b60ff8167ffffffffffffffff16116128955761286e601860058460ff16901b1784612c0790919063ffffffff16565b5061288f8167ffffffffffffffff16600185612c279092919063ffffffff16565b50612987565b61ffff8167ffffffffffffffff16116128ec576128c5601960058460ff16901b1784612c0790919063ffffffff16565b506128e68167ffffffffffffffff16600285612c279092919063ffffffff16565b50612986565b63ffffffff8167ffffffffffffffff16116129455761291e601a60058460ff16901b1784612c0790919063ffffffff16565b5061293f8167ffffffffffffffff16600485612c279092919063ffffffff16565b50612985565b612962601b60058460ff16901b1784612c0790919063ffffffff16565b506129838167ffffffffffffffff16600885612c279092919063ffffffff16565b505b5b5b5b505050565b612995612eee565b6129a783846000015151848551612c49565b905092915050565b6129cd60036005600660ff16901b1783612c0790919063ffffffff16565b50612a2282827fffffffffffffffffffffffffffffffffffffffffffffffffffffffffffffffff6129fe9190614326565b604051602001612a0e91906131c0565b604051602081830303815290604052612d38565b5050565b612a4460026005600660ff16901b1783612c0790919063ffffffff16565b50612a6e8282604051602001612a5a91906131c0565b604051602081830303815290604052612d38565b5050565b60003084604051602001612a87929190614544565b604051602081830303815290604052805190602001209050846005600083815260200190815260200160002060006101000a81548173ffffffffffffffffffffffffffffffffffffffff021916908373ffffffffffffffffffffffffffffffffffffffff160217905550807fb5e6e01e79f91267dc17b4e6314d5d4d03593d2ceee0fbb452b750bd70ea5af960405160405180910390a2600260009054906101000a900473ffffffffffffffffffffffffffffffffffffffff1673ffffffffffffffffffffffffffffffffffffffff16634000aea08685856040518463ffffffff1660e01b8152600401612b7d93929190614570565b6020604051808303816000875af1158015612b9c573d6000803e3d6000fd5b505050506040513d601f19601f82011682018060405250810190612bc09190613fb0565b612bff576040517f08c379a0000000000000000000000000000000000000000000000000000000008152600401612bf690614620565b60405180910390fd5b949350505050565b612c0f612eee565b612c1f8384600001515184612d5d565b905092915050565b612c2f612eee565b612c40848560000151518585612db3565b90509392505050565b612c51612eee565b8251821115612c5f57600080fd5b84602001518285612c70919061374f565b1115612ca557612ca4856002612c9588602001518887612c90919061374f565b612e41565b612c9f9190613a3a565b612e5d565b5b600080865180518760208301019350808887011115612cc45787860182525b60208701925050505b60208410612d0b5780518252602082612ce6919061374f565b9150602081612cf5919061374f565b9050602084612d0491906135f0565b9350612ccd565b60006001856020036101000a03905080198251168184511681811785525050508692505050949350505050565b612d458260028351612808565b612d58818361298d90919063ffffffff16565b505050565b612d65612eee565b83602001518310612d8b57612d8a8460028660200151612d859190613a3a565b612e5d565b5b83518051602085830101848153818603612da6576001820183525b5050508390509392505050565b612dbb612eee565b84602001518483612dcc919061374f565b1115612df457612df38560028685612de4919061374f565b612dee9190613a3a565b612e5d565b5b6000600183610100612e069190614773565b612e1091906135f0565b90508551838682010185831982511617815281518588011115612e335784870182525b505085915050949350505050565b600081831115612e5357829050612e57565b8190505b92915050565b600082600001519050612e70838361279e565b50612e7b838261298d565b50505050565b6040518060a0016040528060008019168152602001600073ffffffffffffffffffffffffffffffffffffffff16815260200160007bffffffffffffffffffffffffffffffffffffffffffffffffffffffff1916815260200160008152602001612ee8612eee565b81525090565b604051806040016040528060608152602001600081525090565b6000604051905090565b600080fd5b600080fd5b600080fd5b600080fd5b6000601f19601f8301169050919050565b7f4e487b7100000000000000000000000000000000000000000000000000000000600052604160045260246000fd5b612f6f82612f26565b810181811067ffffffffffffffff82111715612f8e57612f8d612f37565b5b80604052505050565b6000612fa1612f08565b9050612fad8282612f66565b919050565b600067ffffffffffffffff821115612fcd57612fcc612f37565b5b612fd682612f26565b9050602081019050919050565b82818337600083830152505050565b600061300561300084612fb2565b612f97565b90508281526020810184848401111561302157613020612f21565b5b61302c848285612fe3565b509392505050565b600082601f83011261304957613048612f1c565b5b8135613059848260208601612ff2565b91505092915050565b60006020828403121561307857613077612f12565b5b600082013567ffffffffffffffff81111561309657613095612f17565b5b6130a284828501613034565b91505092915050565b6000819050919050565b6130be816130ab565b81146130c957600080fd5b50565b6000813590506130db816130b5565b92915050565b6000602082840312156130f7576130f6612f12565b5b6000613105848285016130cc565b91505092915050565b6000819050919050565b6131218161310e565b811461312c57600080fd5b50565b60008135905061313e81613118565b92915050565b60006020828403121561315a57613159612f12565b5b60006131688482850161312f565b91505092915050565b6000806040838503121561318857613187612f12565b5b6000613196858286016130cc565b92505060206131a78582860161312f565b9150509250929050565b6131ba8161310e565b82525050565b60006020820190506131d560008301846131b1565b92915050565b600073ffffffffffffffffffffffffffffffffffffffff82169050919050565b6000613206826131db565b9050919050565b613216816131fb565b811461322157600080fd5b50565b6000813590506132338161320d565b92915050565b60006020828403121561324f5761324e612f12565b5b600061325d84828501613224565b91505092915050565b600080fd5b600080fd5b60008083601f84011261328657613285612f1c565b5b8235905067ffffffffffffffff8111156132a3576132a2613266565b5b6020830191508360018202830111156132bf576132be61326b565b5b9250929050565b6000806000604084860312156132df576132de612f12565b5b600084013567ffffffffffffffff8111156132fd576132fc612f17565b5b61330986828701613270565b9350935050602061331c86828701613224565b9150509250925092565b61332f816130ab565b82525050565b600060208201905061334a6000830184613326565b92915050565b60008115159050919050565b61336581613350565b82525050565b6000602082019050613380600083018461335c565b92915050565b600081519050919050565b600082825260208201905092915050565b60005b838110156133c05780820151818401526020810190506133a5565b60008484015250505050565b60006133d782613386565b6133e18185613391565b93506133f18185602086016133a2565b6133fa81612f26565b840191505092915050565b6000602082019050818103600083015261341f81846133cc565b905092915050565b613430816131fb565b82525050565b600060208201905061344b6000830184613427565b92915050565b600081519050919050565b6000819050602082019050919050565b600061347882516130ab565b80915050919050565b600082821b905092915050565b600061349982613451565b826134a38461345c565b90506134ae8161346c565b925060208210156134ee576134e97fffffffffffffffffffffffffffffffffffffffffffffffffffffffffffffffff83602003600802613481565b831692505b5050919050565b7f6572725f696e76616c69645f616d6f756e740000000000000000000000000000600082015250565b600061352b601283613391565b9150613536826134f5565b602082019050919050565b6000602082019050818103600083015261355a8161351e565b9050919050565b7f4e487b7100000000000000000000000000000000000000000000000000000000600052602260045260246000fd5b600060028204905060018216806135a857607f821691505b6020821081036135bb576135ba613561565b5b50919050565b7f4e487b7100000000000000000000000000000000000000000000000000000000600052601160045260246000fd5b60006135fb8261310e565b91506136068361310e565b925082820390508181111561361e5761361d6135c1565b5b92915050565b7f6572725f696e76616c69645f63616c6c65720000000000000000000000000000600082015250565b600061365a601283613391565b915061366582613624565b602082019050919050565b600060208201905081810360008301526136898161364d565b9050919050565b7f496e73756666696369656e742066756e64730000000000000000000000000000600082015250565b60006136c6601283613391565b91506136d182613690565b602082019050919050565b600060208201905081810360008301526136f5816136b9565b9050919050565b600081905092915050565b600061371282613386565b61371c81856136fc565b935061372c8185602086016133a2565b80840191505092915050565b60006137448284613707565b915081905092915050565b600061375a8261310e565b91506137658361310e565b925082820190508082111561377d5761377c6135c1565b5b92915050565b600081905092915050565b50565b600061379e600083613783565b91506137a98261378e565b600082019050919050565b60006137bf82613791565b9150819050919050565b7f4661696c656420746f2073656e64204574686572000000000000000000000000600082015250565b60006137ff601483613391565b915061380a826137c9565b602082019050919050565b6000602082019050818103600083015261382e816137f2565b9050919050565b7f536f75726365206d75737420626520746865206f7261636c65206f662074686560008201527f2072657175657374000000000000000000000000000000000000000000000000602082015250565b6000613891602883613391565b915061389c82613835565b604082019050919050565b600060208201905081810360008301526138c081613884565b9050919050565b7f6572725f7a65726f5f616d6f756e740000000000000000000000000000000000600082015250565b60006138fd600f83613391565b9150613908826138c7565b602082019050919050565b6000602082019050818103600083015261392c816138f0565b9050919050565b7f6572725f6d69645f72656465656d656400000000000000000000000000000000600082015250565b6000613969601083613391565b915061397482613933565b602082019050919050565b600060208201905081810360008301526139988161395c565b9050919050565b7f4e487b7100000000000000000000000000000000000000000000000000000000600052600160045260246000fd5b7f4e6f2061646472657373203020616c6c6f776564000000000000000000000000600082015250565b6000613a04601483613391565b9150613a0f826139ce565b602082019050919050565b60006020820190508181036000830152613a33816139f7565b9050919050565b6000613a458261310e565b9150613a508361310e565b9250828202613a5e8161310e565b91508282048414831517613a7557613a746135c1565b5b5092915050565b7f4e487b7100000000000000000000000000000000000000000000000000000000600052601260045260246000fd5b6000613ab68261310e565b9150613ac18361310e565b925082613ad157613ad0613a7c565b5b828204905092915050565b6000613ae883856136fc565b9350613af5838584612fe3565b82840190509392505050565b6000613b0e828486613adc565b91508190509392505050565b60008190508160005260206000209050919050565b60008154613b3c81613590565b613b4681866136fc565b94506001821660008114613b615760018114613b7657613ba9565b60ff1983168652811515820286019350613ba9565b613b7f85613b1a565b60005b83811015613ba157815481890152600182019150602081019050613b82565b838801955050505b50505092915050565b6000613bbe8286613b2f565b9150613bcb828486613adc565b9150819050949350505050565b7f2f00000000000000000000000000000000000000000000000000000000000000815250565b6000613c0982613bd8565b600182019150613c198284613707565b915081905092915050565b6000613c308285613707565b9150613c3c8284613707565b91508190509392505050565b600082905092915050565b60006020601f8301049050919050565b600060088302613c937fffffffffffffffffffffffffffffffffffffffffffffffffffffffffffffffff82613481565b613c9d8683613481565b95508019841693508086168417925050509392505050565b6000819050919050565b6000613cda613cd5613cd08461310e565b613cb5565b61310e565b9050919050565b6000819050919050565b613cf483613cbf565b613d08613d0082613ce1565b848454613c63565b825550505050565b600090565b613d1d613d10565b613d28818484613ceb565b505050565b5b81811015613d4c57613d41600082613d15565b600181019050613d2e565b5050565b601f821115613d9157613d6281613b1a565b613d6b84613c53565b81016020851015613d7a578190505b613d8e613d8685613c53565b830182613d2d565b50505b505050565b600082821c905092915050565b6000613db460001984600802613d96565b1980831691505092915050565b6000613dcd8383613da3565b9150826002028217905092915050565b613de78383613c48565b67ffffffffffffffff811115613e0057613dff612f37565b5b613e0a8254613590565b613e15828285613d50565b6000601f831160018114613e445760008415613e32578287013590505b613e3c8582613dc1565b865550613ea4565b601f198416613e5286613b1a565b60005b82811015613e7a57848901358255600182019150602085019450602081019050613e55565b86831015613e975784890135613e93601f891682613da3565b8355505b6001600288020188555050505b50505050505050565b7f4d7573742062652070726f706f736564206f776e657200000000000000000000600082015250565b6000613ee3601683613391565b9150613eee82613ead565b602082019050919050565b60006020820190508181036000830152613f1281613ed6565b9050919050565b600081519050613f2881613118565b92915050565b600060208284031215613f4457613f43612f12565b5b6000613f5284828501613f19565b91505092915050565b6000604082019050613f706000830185613427565b613f7d60208301846131b1565b9392505050565b613f8d81613350565b8114613f9857600080fd5b50565b600081519050613faa81613f84565b92915050565b600060208284031215613fc657613fc5612f12565b5b6000613fd484828501613f9b565b91505092915050565b7f556e61626c6520746f207472616e736665720000000000000000000000000000600082015250565b6000614013601283613391565b915061401e82613fdd565b602082019050919050565b6000602082019050818103600083015261404281614006565b9050919050565b6000819050919050565b61406461405f826130ab565b614049565b82525050565b60006140768284614053565b60208201915081905092915050565b7f416d6f756e742062656c6f77206d696e696d756d000000000000000000000000600082015250565b60006140bb601483613391565b91506140c682614085565b602082019050919050565b600060208201905081810360008301526140ea816140ae565b9050919050565b6140fa82613386565b67ffffffffffffffff81111561411357614112612f37565b5b61411d8254613590565b614128828285613d50565b600060209050601f83116001811461415b5760008415614149578287015190505b6141538582613dc1565b8655506141bb565b601f19841661416986613b1a565b60005b828110156141915784890151825560018201915060208501945060208101905061416c565b868310156141ae57848901516141aa601f891682613da3565b8355505b6001600288020188555050505b505050505050565b7f4f6e6c792063616c6c61626c65206279206f776e657200000000000000000000600082015250565b60006141f9601683613391565b9150614204826141c3565b602082019050919050565b60006020820190508181036000830152614228816141ec565b9050919050565b7f4e487b7100000000000000000000000000000000000000000000000000000000600052603260045260246000fd5b60006142698261310e565b91506000820361427c5761427b6135c1565b5b600182039050919050565b600060408201905061429c60008301856131b1565b6142a960208301846131b1565b9392505050565b7f43616e6e6f74207472616e7366657220746f2073656c66000000000000000000600082015250565b60006142e6601783613391565b91506142f1826142b0565b602082019050919050565b60006020820190508181036000830152614315816142d9565b9050919050565b6000819050919050565b60006143318261431c565b915061433c8361431c565b9250828203905081811260008412168282136000851215161715614363576143626135c1565b5b92915050565b60007fffffffff0000000000000000000000000000000000000000000000000000000082169050919050565b61439e81614369565b82525050565b600082825260208201905092915050565b60006143c082613451565b6143ca81856143a4565b93506143da8185602086016133a2565b6143e381612f26565b840191505092915050565b600060e082019050614403600083018a613427565b61441060208301896131b1565b61441d6040830188613326565b61442a6060830187614395565b61443760808301866131b1565b61444460a08301856131b1565b81810360c083015261445681846143b5565b905098975050505050505050565b600061446f8261310e565b915061447a8361310e565b92508261448a57614489613a7c565b5b828206905092915050565b60006144b06144ab6144a6846131db565b613cb5565b6131db565b9050919050565b60006144c282614495565b9050919050565b60006144d4826144b7565b9050919050565b60008160601b9050919050565b60006144f3826144db565b9050919050565b6000614505826144e8565b9050919050565b61451d614518826144c9565b6144fa565b82525050565b6000819050919050565b61453e6145398261310e565b614523565b82525050565b6000614550828561450c565b601482019150614560828461452d565b6020820191508190509392505050565b60006060820190506145856000830186613427565b61459260208301856131b1565b81810360408301526145a481846143b5565b9050949350505050565b7f756e61626c6520746f207472616e73666572416e6443616c6c20746f206f726160008201527f636c650000000000000000000000000000000000000000000000000000000000602082015250565b600061460a602383613391565b9150614615826145ae565b604082019050919050565b60006020820190508181036000830152614639816145fd565b9050919050565b60008160011c9050919050565b6000808291508390505b600185111561469757808604811115614673576146726135c1565b5b60018516156146825780820291505b808102905061469085614640565b9450614657565b94509492505050565b6000826146b0576001905061476c565b816146be576000905061476c565b81600181146146d457600281146146de5761470d565b600191505061476c565b60ff8411156146f0576146ef6135c1565b5b8360020a915084821115614707576147066135c1565b5b5061476c565b5060208310610133831016604e8410600b84101617156147425782820a90508381111561473d5761473c6135c1565b5b61476c565b61474f848484600161464d565b92509050818404811115614766576147656135c1565b5b81810290505b9392505050565b600061477e8261310e565b91506147898361310e565b92506147b67fffffffffffffffffffffffffffffffffffffffffffffffffffffffffffffffff84846146a0565b90509291505056fe5b22636f6e74656e742d74797065222c20226170706c69636174696f6e2f6a736f6e222c20227365742d636f6f6b6965222c20227369643d3134413532225da26469706673582212206bc6554671b3e40939146e6fd45a3d500f5947e7a2f9037a09a42d689cb6194964736f6c63430008180033",
  "linkReferences": {},
  "deployedLinkReferences": {}
}